:1000000010C015C014C013C012C011C010C00FC062
:100010000EC00DC00CC00BC00AC009C008C007C08C
:1000200006C011241FBECFEDCDBFC2D155C3E8CF4E
:10003000CF92DF92EF92FF920F931F93CF93DF93B4
:10004000EC017B016A01122F3CD2813069F00CEC8B
:10005000212FA601B701CE0165D204E4212FA6010C
:10006000B701CE015FD280E0DF91CF911F910F9158
:10007000FF90EF90DF90CF9008955F926F927F9204
:100080008F929F92AF92BF92CF92DF92EF92FF92A8
:100090000F931F93CF93DF936C015B014A01522EA4
:1000A00010D2813061F10CEC252DA401B501C601FF
:1000B00039D20EEB252DA401B501C60133D237018B
:1000C0008701075F1F4FE701252DA401B501C60178
:1000D00060D28993C017D107B9F7F7019081818168
:1000E000892B9281892B9381892B9481892B9581EE
:1000F000892B9681892B9781892B89F483E0DF9165
:10010000CF911F910F91FF90EF90DF90CF90BF9014
:10011000AF909F908F907F906F905F900895B70100
:10012000685F7F4F90E04CE8F30121913F0188E048
:10013000392F3227969530FD942726958150C1F7A7
:100140006616770689F7F70120852917C1F282E044
:10015000D6CF6F927F928F929F92AF92CF92EF9273
:100160000F931F93CF93DF93EC014B013A01122FB2
:10017000A8D18130F9F00CEC212FA301B401CE01FC
:10018000D1D10EE4212FA301B401CE01CBD10E2D8C
:10019000212FA301B401CE01C5D10C2D212FA30124
:1001A000B401CE01BFD10A2D212FA301B401CE018C
:1001B000B9D180E0DF91CF911F910F91EF90CF9057
:1001C000AF909F908F907F906F900895CF92DF9225
:1001D000EF92FF920F931F93CF93DF93CDB7DD275D
:1001E000C950CDBF6701FE0131967F0146DF811105
:1001F00016C08A8190E0982F88272981820F911D4F
:10020000F6019183808380E0C75FCDBFDF91CF91FE
:100210001F910F91FF90EF90DF90CF900895F6011E
:1002200011821082F1CF27E030E061E070E008C079
:10023000DA9A0000D99A0000D9982150310950F07B
:10024000AB01022E01C0440F0A94EAF7482381F75C
:10025000DA98EFCF0895CF93C62FDB980000E3DF45
:100260008C2FE1DF0000DB9A0000CF910895CF933F
:10027000DF939C0140E050E06CEB7AE081E190E09C
:10028000EDD1C90168EE73E0D5D1EC01606881E081
:10029000E2DFCE0164E670E0CDD1EC0183E0DBDF8C
:1002A000CE016AE070E0C6D1C82F84E0D4DF6C2FA5
:1002B00082E0DF91CF91CFCFEF92FF920F931F9308
:1002C000CF93DF9397FD6DC0EC019595879595953C
:1002D00087959595879595958795C03426E0D207A3
:1002E0004CF164E670E0A6D18C0181E0B4DFC80176
:1002F0006AE070E09FD1182F83E0ADDF612F606866
:1003000084E0A9DFCF70DD27BE01660F771F660F7F
:10031000771FC60FD71FBE017595679575956795B1
:100320007595679582E0DF91CF911F910F91FF90B6
:10033000EF9091CFCF70DD279E01220F331F2C0F3E
:100340003D1FA901440F551F42955295507F5427D8
:10035000407F5427240F351FC20FD31FD595C79553
:10036000D595C795D595C795D595C795EAE0EE2E55
:10037000F12CB7015FD1182F81E06DDF612F60682C
:1003800083E069DFCE01B70155D1C82F84E063DF78
:100390006C2F82E0DF91CF911F910F91FF90EF9032
:1003A0005ACFDF91CF911F910F91FF90EF90089559
:1003B000CF93DF93CDB7DD27C450CDBF2FE986E8BB
:1003C00091E0215080409040E1F700C00000D39AB6
:1003D000D19AD29ADB9AD998DA9881E287B984E8DF
:1003E00086B9E9EFF0E03197F1F700C0000061E075
:1003F0008CE031DF60E08FE02EDF6FE089E02BDF03
:1004000060E08AE028DF63E08BE025DF8FE493EC97
:100410000197F1F700C0000080E4A82E9DE7C92EE7
:10042000E12C00E010E024E046E350E067E370E0F8
:1004300088E390E08EDE2EE1F22E04E610E094E6F2
:1004400040E050E0369A349BFECF349A24B130E03D
:100450003C832B8385B12B813C81382B420F531F6A
:10046000E9EFF0E03197F1F700C00000915051F74B
:10047000CA01B801DFD0CB01FADEFA94F110DFCF68
:100480001A82198200E010E024E046E350E067E3BE
:1004900070E088E390E0CCDD83EC99E00197F1F720
:1004A00000C00000FE0131967F0124E046E350E0E9
:1004B00067E370E088E390E089DE89819A81FCDE61
:1004C000E1CFCF93DF93DC01FB013FB78C91822B0F
:1004D0008C938081822B80839C91822F809598239E
:1004E0009C9398EC9A95F1F7908189238083C7E1DA
:1004F000CA95F1F70000EA018881D2E4DA95F1F7B4
:1005000000C09C91922B9C939081922B908398ECAD
:100510009A95F1F73FBF282381E009F480E0DF914D
:10052000CF9108950F93FC01DB017FB7622F609597
:1005300048E050E091E010C082E08A95F1F700C0F9
:100540008081822B80838AE18A95F1F700C03FBFCA
:10055000990F41505109D1F03FB78081822B8083A0
:100560008C91822B8C93808186238083802F89239A
:1005700019F78AE18A95F1F700C08081822B808388
:1005800000C03FBF990F4150510931F77FBF0F9114
:100590000895DF92EF92FF920F931F93CF93DF9313
:1005A000DC01FB01EA01DFB6E22EE09408E010E096
:1005B00031E0F12C4FB78C91822B8C938081822B70
:1005C00080838C918E218C9300C080818E218083CA
:1005D00000C000C00000988184E18A95F1F74FBF08
:1005E000422F492381E090E011F480E090E0632FF6
:1005F00070E00FD0F82A330F01501109D9F6DFBE91
:100600008F2DDF91CF911F910F91FF90EF90DF9091
:1006100008950024552704C0080E591F880F991FFC
:10062000009729F076956795B8F37105B9F7802D95
:10063000952F0895AA1BBB1B51E107C0AA1FBB1F22
:10064000A617B70710F0A61BB70B881F991F5A955E
:10065000A9F780959095BC01CD010895052E97FBD3
:1006600016F400940FD057FD05D014D007FC02D02B
:1006700046F408C050954095309521953F4F4F4F17
:100680005F4F089590958095709561957F4F8F4F3E
:100690009F4F0895A1E21A2EAA1BBB1BFD010DC09E
:1006A000AA1FBB1FEE1FFF1FA217B307E407F50722
:1006B00020F0A21BB30BE40BF50B661F771F881FFE
:1006C000991F1A9469F760957095809590959B0194
:0C06D000AC01BD01CF010895F894FFCFEC
:00000001FF
