S0190000706F636B65742D647331386232302D66772E737265634A
S113000010C015C014C013C012C011C010C00FC05E
S11300100EC00DC00CC00BC00AC009C008C007C088
S113002006C011241FBECFEDCDBF44D2E7C3E8CF35
S1130030DC0180E040E012C0FD01E40FF11D2081ED
S113004090E009C0382F3227869530FF02C03CE883
S1130050832726959F5F9830A8F34F5F461760F378
S11300600895CF92DF92EF92FF920F931F93CF9355
S1130070DF93EC017B016A01122FC7D2813069F052
S11300800CEC212FA601B701CE011DD304E4212FCE
S1130090A601B701CE0117D380E0DF91CF911F9164
S11300A00F91FF90EF90DF90CF9008958F929F92E1
S11300B0AF92BF92CF92DF92EF92FF920F931F9372
S11300C0CF93DF936C015B014A01D22F9ED2813022
S11300D0C1F10CEC2D2FA401B501C601F4D20EEB35
S11300E02D2FA401B501C601EED2C0E00BC08701DB
S11300F00C0F111D2D2FA401B501C6012ED3F8013B
S11301008083CF5FC93098F3F70170818181628168
S113011053814481358126819781872B862B852BBA
S1130120842B832B822B892B49F068E0C70180DF65
S1130130F7019085891721F082E003C083E001C0B4
S113014080E0DF91CF911F910F91FF90EF90DF90AE
S1130150CF90BF90AF909F908F9008956F927F92B1
S11301608F929F92AF92CF92EF920F931F93CF9360
S1130170DF93EC014B013A01122F47D28130F9F0A1
S11301800CEC212FA301B401CE019DD20EE4212F4A
S1130190A301B401CE0197D20E2D212FA301B401E6
S11301A0CE0191D20C2D212FA301B401CE018BD20B
S11301B00A2D212FA301B401CE0185D280E0DF9165
S11301C0CF911F910F91EF90CF90AF909F908F9010
S11301D07F906F900895CF92DF92EF92FF920F93EA
S11301E01F93CF93DF93CDB7DD27C950CDBF6701F0
S11301F0FE0131967F015ADF882321F0F601118236
S113020010820BC08A8190E0982F88272981820F61
S1130210911DF6019183808380E0C75FCDBFDF919C
S1130220CF911F910F91FF90EF90DF90CF900895A1
S113023061110EC04BB321E030E0B90102C0660F7A
S1130240771F8A95E2F7CB01809584238BBB0895B1
S11302504BB321E030E0B90102C0660F771F8A95E5
S1130260E2F7CB01842B8BBB0895CF93DF93D82F78
S1130270C0E01CC02D2F30E087E090E08C1B91097A
S113028061E070E0AB0102C0440F551F8A95E2F7AC
S1130290B9016423752382E0CBDF000061E081E0D3
S11302A0C7DF000060E081E0C3DFCF5FC83010F338
S11302B0DF91CF910895CF93DF93D82FC62F60E0BD
S11302C083E0B6DF00008D2FD0DF8C2FCEDF00005F
S11302D061E083E0ADDF0000DF91CF910895CF931B
S11302E0DF93CDB7DD27C450CDBF198292E09A8346
S11302F093E09B8391E09C83E1E0F0E0EC0FFD1F31
S1130300E80FF11D8081411160688F5FD4DFCC5FFD
S1130310CDBFDF91CF910895EF92FF920F931F937A
S1130320CF93DF9360E177E255D2EC010AE010E06D
S1130330B80150D27B0140E0682F83E0D0DFC701D1
S1130340B80148D240E0682F82E0C9DFCE0164E6FC
S113035070E040D2CB01B8013DD240E0682F81E08B
S1130360BEDFCE0168EE73E035D240E080E0B7DF57
S1130370DF91CF911F910F91FF90EF900895FF921D
S11303800F931F93CF93DF9399230CF48DC0AC018B
S1130390992314F4415F5F4F9C01CA019595879599
S11303A0959587959595879595958795203446E0FD
S11303B034070CF041C02F703078332334F42150CB
S11303C03109206F3F6F2F5F3F4FA901440F551F25
S11303D0420F531FBA01660F771F62957295707FA3
S11303E07627607F7627460F571F240F351F332348
S11303F014F4215F3F4FE901D595C795D595C7956D
S1130400D595C795D595C7950AE010E0B801E2D116
S1130410F82E40E080E063DF41E06F2D81E05FDF94
S1130420CE01B801D7D1C82F40E082E058DF40E0C8
S11304306C2F83E054DF38C02F703078332334F4CA
S113044021503109206F3F6F2F5F3F4FA901440FA7
S1130450551F440F551F240F351F220F331FB90199
S1130460332314F4615F7F4FEB01D595C795D59580
S1130470C795D595C795D595C79564E670E0AAD17B
S11304808C0140E080E02BDFC8016AE070E0A2D17B
S1130490D82F40E081E023DF41E06D2F82E01FDFB1
S11304A040E06C2F83E01BDFDF91CF911F910F9110
S11304B0FF900895CF93DF93CDB7DD27C450CDBF10
S11304C08AB388608ABB8AB382608ABB8AB3846039
S11304D08ABB61E083E0ACDE60E081E0A9DE60E03D
S11304E082E0A6DE81E287B984E886B989EF90E0EC
S11304F00197F1F700C0000060E070E0E0E0F0E098
S113050018C086B1806486B9349BFECF96B19061E1
S113051096B924B130E03C832B8325B130E0322FEF
S113052022274B815C81242B352BE20FF31F6F5F55
S11305307F4F683E93E0790720F3CF0168EE73E0C4
S113054049D14B0183EC99E00197F1F700C0000019
S113055061E08CE0B0DE60E08FE0ADDE6FE089E06A
S1130560AADE60E08AE0A7DE63E08BE0A4DE41E07F
S113057068E080E0B4DE41E068E081E0B0DE41E0C4
S113058068E082E0ACDE41E068E083E0A8DE6894E5
S1130590AA24A6F80F2EFDE7CF2EF02DE12C00E0C3
S11305A010E024E046E350E067E370E088E390E085
S11305B0D5DDC401B1DE9FE72AE186E091502040F9
S11305C08040E1F700C000001A82198200E010E0C8
S11305D024E046E350E067E370E088E390E041DD27
S11305E083EC99E00197F1F700C00000CE01019679
S11305F07C0124E046E350E067E370E088E390E0A8
S1130600EADD89819A81BBDEE1CFCF93DF93DC0100
S1130610FB013FB78C91822B8C938081822B80834A
S11306209C91822F809598239C9398EC9A95F1F74E
S1130630908189238083C7E1CA95F1F70000EA011C
S113064098819223D2E4DA95F1F700C08C91822B41
S11306508C938081282B208388EC8A95F1F73FBF07
S113066081E0911101C080E0DF91CF9108950F9353
S1130670FC019FB78081822B8083DB018C91822BCC
S11306808C938081322F309583238083002329F03B
S1130690B2E0BA95F1F700C004C08AE18A95F1F797
S11306A000C08081282B2083002329F0AAE1AA9589
S11306B0F1F700C001C000C09FBF81E0011101C07B
S11306C080E00F9108959F92AF92BF92CF92DF92F4
S11306D0EF92FF920F931F93CF93DF935C016B0113
S11306E07A01122FD02F9FB6C1E008C00C2F0D2322
S11306F0212FA701B601C501BADFCC0FC111F6CF76
S11307009FBEDF91CF911F910F91FF90EF90DF90EB
S1130710CF90BF90AF909F900895DC01FB013FB74D
S11307208C91822B8C938081822B80838C91922F4D
S1130730909589238C9300C080819823908300C076
S113074000C00000FA018081282381E009F480E0E0
S1130750F4E1FA95F1F73FBF0895AF92BF92CF92BB
S1130760DF92EF92FF920F931F93CF93DF936C016D
S11307707B018A01B22EAFB6C1E0D0E00BC02B2DB5
S1130780A801B701C601C9DF6C2F70E090E011D059
S1130790D82BCC0FC111F3CFAFBE8D2FDF91CF91EA
S11307A01F910F91FF90EF90DF90CF90BF90AF908B
S11307B008950024552704C0080E591F880F991F57
S11307C0009729F076956795B8F37105B9F7802DF0
S11307D0952F0895AA1BBB1B51E107C0AA1FBB1F7D
S11307E0A617B70710F0A61BB70B881F991F5A95B9
S11307F0A9F780959095BC01CD010895F894FFCF99
S9030000FC
